:020000040800F2
:1000000000000220894100089D400008A14000082E
:10001000A5400008A9400008AD400008000000000D
:10002000000000000000000000000000B1400008D7
:10003000B540000800000000B9400008BD400008BD
:10004000D9410008D9410008D9410008D941000828
:10005000D9410008D9410008D9410008D941000818
:10006000D9410008D9410008D9410008CD40000815
:10007000D9400008D9410008D9410008D9410008F9
:10008000D9410008D9410008D9410008D9410008E8
:10009000D9410008D9410008D9410008D9410008D8
:1000A000D9410008D9410008D9410008D9410008C8
:1000B000D9410008D9410008D9410008D9410008B8
:1000C000D9410008D9410008D9410008D9410008A8
:1000D000D9410008D9410008D9410008D941000898
:1000E000D9410008D941000800000000D9410008AA
:1000F000D9410008D9410008D9410008D941000878
:10010000E5400008D9410008D9410008D94100085C
:10011000D9410008D9410008D9410008D941000857
:10012000D9410008D9410008D9410008D941000847
:10013000D9410008D9410008D9410008D941000837
:1001400000000000000000000000000000000000AF
:10015000D9410008D9410008D9410008D941000817
:10016000D9410008D9410008D9410008D941000807
:10017000D9410008D9410008D94100080000000019
:10018000D9410008D9410008D9410008D9410008E7
:10019000D9410008F1400008D9410008D9410008C0
:1001A000D9410008D9410008D9410008FD400008A4
:1001B000D9410008D9410008D9410008D9410008B7
:1001C000D9410008D9410008D9410008D9410008A7
:1001D000D9410008D9410008D9410008D941000897
:1001E000D9410008D9410008D9410008D941000887
:1001F000D9410008D9410008D9410008D941000877
:10020000D9410008D9410008D9410008D941000866
:10021000D9410008D9410008D9410008D941000856
:10022000D9410008D9410008D94100080000000068
:10023000D9410008D941000800000000D941000858
:10024000D9410008D9410008D9410008D941000826
:10025000D9410008D9410008D9410008D941000816
:10026000D9410008D9410008D9410008D941000806
:10027000D941000819410008D941000800000000D8
:10028000D941000800000000D9410008000000002A
:0802900000000000D941000844
:1002980010B5054C237833B9044B13B10448AFF3B8
:1002A80000800123237010BD18000020000000000A
:1002B8002442000808B5034B1BB103490348AFF3B8
:1002C800008008BD000000001C0000202442000837
:1002D8000E4A4FF47A730E491278B3FBF2F310B555
:1002E80004460868B0FBF3F000F0AAF858B90F2CE0
:1002F80009D8002221464FF0FF3000F059F8054B8D
:1003080000201C6010BD012010BD00BF00000020AF
:10031800140000200400002000B5032083B000F082
:1003280033F80020FFF7D4FF18B1012003B05DF8BF
:1003380004FB019003F084FC019803B05DF804FB12
:10034800034A044B11681B780B441360704700BFC5
:100358003400002000000020014B1868704700BFDF
:100368003400002038B50446FFF7F6FF0546631C45
:1003780002D0044B1B781C44FFF7EEFF401B84425D
:10038800FAD838BD0000002007490002074BCA68A8
:1003980000F4E06010B44FF6FF0422405DF8044B0F
:1003A80013431843C860704700ED00E00000FA05E9
:1003B800194B70B4DC68C4F30224C4F10706231D8A
:1003C800042E28BF0426062B19D9033C0125A54075
:1003D800013D2A400123002803FA06F303F1FF3305
:1003E80001EA030101FA04F141EA02010ADB090109
:1003F8000A4BC9B2034483F8001370BC704700224B
:100408001446E7E700F00F000901054BC9B20344A1
:10041800197670BC704700BF00ED00E000E100E015
:10042800FCEC00E0002807DB00F01F010123400975
:10043800024A8B4042F82030704700BF00E100E0DC
:100448000138B0F1807F0DD2074B0022072130B46C
:10045800F025064C5860104684F823509A601960BD
:1004680030BC70470120704710E000E000ED00E06C
:10047800044A042813680CBF43F0040323F0040360
:100488001360704710E000E0704700BF08B5FFF741
:10049800FBFF08BD184A03681A448C2A30B418D9DF
:1004A800DAB2164C1649103A1944A4FB0223154A2D
:1004B800A8294FF001014FEA1313134C98BF0833D2
:1004C80044661A4401FA03F392008366026630BC5C
:1004D8007047DBB20D4D0E4A0121083B0D4CA5FBC0
:1004E800035344661B091A4401FA03F39200836616
:1004F800026630BC704700BFF8ABFDA7ABAAAAAA3A
:10050800F0FBFDBF0082001080080240CDCCCCCCAF
:100518000096001680580258F8B50446FFF71CFFED
:10052800002C00F0F28023688B4A1A44B2F5956FCC
:1005380058D802220021054684F835201A6884F824
:10054800341022F001021A6006E0FFF705FF401B95
:10055800052800F2978023681A68D107F5D4E16866
:10056800A26820690A436169A6690243E5697B4F6D
:100578000A431968206A32430F40616A2A430429F2
:1005880042EA000242EA070200F085801A605A69CE
:1005980022F007021143DAB2714D5961103A7148DD
:1005A800A5FB02121209815C032A6F4A2046E16505
:1005B80002EA03024FF03F0388BF04328B40A26572
:1005C8009360FFF767FFA368802B42D10023206E5A
:1005D800626EA16E6360036051600023E366236767
:1005E800636749E0614919448C2976D80220A268DA
:1005F8005F4F002584F83500402A186884F8345085
:1006080007EA000745D0802A08BF4FF480452269D1
:10061800E068D208666942EAD002A06942EAD602D6
:10062800266A42EAD002E06942EA1612514EC00830
:100638003A43A6FB016100F0200009090243204665
:1006480089002A431A60E165FFF724FFA368802B1D
:10065800BCD06368256EDAB2013B616EA06E072BD1
:100668002A604860B9D8501E07283DD9606FE36EEC
:10067800226F00211960506000200123606584F812
:100688003530F8BD202203230120626584F8353017
:10069800F8BD1025BBE7216BE56AA76A45EA0100AA
:1006A80047F0040102431A605A6922F00702114315
:1006B800002D3FF470AF002E31D1012F38D002D376
:1006C800022F7FF468AFEA017FF565AF012340226E
:1006D8001846626584F83530F8BD402203230120AE
:1006E800626584F83530F8BD2168204B0B448C2BAB
:1006F8000DD8214B214913440A4621679B00E36624
:100708000121814008466167B3E70120F8BD1C4B11
:100718001C49134421670A469B00E366F0E7B6F5D7
:10072800005F0AD0022FD1D9032F7FF434AFCAE774
:10073800B5F1C07F7FF42FAFC8E7032F3FF62BAF8B
:1007480001A252F827F000BFD5060008CF0600081E
:10075800D506000839070008F0FFFDBF3F8010FEEE
:10076800ABAAAAAA3C42000800FCFFFFF8ABFDA711
:100778000F80FFFFCDCCCCCC3F96001640590258D5
:100788003F82001040090240F8B50446FFF7E4FD37
:10079800002C59D094F83530022B06D08022002343
:1007A8000120626584F83430F8BD256806462A4B76
:1007B8002B44B3F5956F2B6832D923F00E0300272D
:1007C800226E2B60136823F4807313602B6823F068
:1007D80001032B6004E0FFF7BFFD801B052829D823
:1007E8002B68DB07F7D422681B4B1344B3F5956FCE
:1007F8002CD8E26D3F239340BB60626EA16EE36E1E
:10080800516033B11A68216F606F22F480721A60E8
:1008180048600020012384F8340084F83530F8BD9E
:1008280023F01E03226EA76D2B606B6923F08003F3
:100838006B61C7E72021002203230120616584F84A
:10084800342084F83530F8BD0120F8BDE16D01236E
:10085800024A8B405360D0E7F0FFFDBF00540258B6
:10086800F8B5002841D090F83530022B04D080220A
:10087800012442652046F8BD02681E4B1344B3F5B7
:10088800956F28D911680123C46D21F00E01056EFA
:10089800466EA34011601168C46E21F00101164F25
:1008A80011602A6822F480722A607B60836E73600C
:1008B80034B12368026F416F23F480732360516061
:1008C80000240122036D80F8344080F835207BB184
:1008D80098472046F8BD0421002480F835102046AA
:1008E800116821F001011160F8BD01242046F8BD0E
:1008F8001C46BFE7F0FFFDBF00540258924A002192
:1009080003681A44F0B5B2F5956F83B0866D044656
:10091800019135685DD8C26D08218C4891400768FF
:100928000D420BD01868400708D5186820F004005D
:100938001860B160616D41F00101616584499140C1
:100948000D4207D05869000604D5B160616D41F0C9
:10095800020161657F4991400D4207D01868800700
:1009680004D5B160616D41F00401616510219140C9
:100978000D424FD1202191400D4240F0CE80636D51
:100988002BB3636DDD071ED52168042284F835205A
:100998000B68714A23F001030B60A2FB0732920A2D
:1009A80002E00B68D80704D5019B01339A420193F2
:1009B800F7D20B680022DB0784F834204CBF0323EE
:1009C800012384F83530E36C0BB12046984703B017
:1009D800F0BD624A1A448C2AF9D861490420E26DB4
:1009E8000D6800FA02F10D4252D01D686F074FD50D
:1009F8001A68960606D41A6822F004021A60E16D95
:100A080000FA01F1564A256C536819435160002DCC
:100A180064D1DCE718680007ACD5B160196811F437
:100A2800802F19687DD0080300F18980216C002986
:100A3800A0D020468847E26D202191400D429ED0EB
:100A4800236841481844B0F5956F66D91868C0F313
:100A58004000002893D0B16094F83510042900F0C4
:100A680081801A68520363D41A6812F4807208D11C
:100A78001968012021F01001196084F8342084F8E5
:100A88003500E36B002B3FF47AAF2046984776E7B2
:100A9800334902200D6800FA02F10D4222D1304894
:100AA8000821056801FA02F22A4290D01A68120752
:100AB8008DD519680122E56C002621F00E01196018
:100AC800E36D416802FA03F30B434360626584F8FF
:100AD800346084F83520002D3FF479AF2046A847CC
:100AE80003B0F0BD1D68AD07D9D51A6812F0200211
:100AF8000BD11968012521F00A011960E16D84F80C
:100B0800342000FA01F184F83550154AE56B536832
:100B180019435160002DE1D159E71868C0F300105E
:100B280097E7C90582D4196821F0080119607DE7A3
:100B38001B681E03A5D4636C002BA6D11FE7A16C0C
:100B480000297FF476AF15E7F0FFFDBF1400002001
:100B58000100800004008000B5814E1BF8ABFDA7A2
:100B6800005402581968206C21F01601196059695F
:100B780021F080015961A0B1196821F008011960BC
:100B88003F2300250120216D03FA02F2B26084F8A8
:100B9800345084F8350000293FF419AF20468847BF
:100BA80015E7A16C0029E7D1EAE700BF2DE9F04F6E
:100BB800DFF83CC283B00025DFF83882D1F800E0C6
:100BC80003E00135102D00F0C2800123AB4003EA99
:100BD8000E029342F5D14E6826F01009B9F1020FC2
:100BE80040F0B8804FEAD50905F0070A4FF00F0B1F
:100BF8000C6900EB89094FEA8A0AD9F820700BFAC8
:100C08000AFB04FA0AF44FEA450A27EA0B074FF0F1
:100C1800030B3C430BFA0AFB06F00307C9F8204014
:100C28006FEA0B04D0F8009007FA0AF709EA0409FA
:100C380047EA090707608768C6F3001907EA040B43
:100C4800CF6809FA05F907FA0AF747EA0B07876038
:100C5800476827EA030349EA03034360C7688B68C8
:100C68003C4003FA0AF32343C360F300A9D5D8F83C
:100C7800F44025F0030705F003034FF00F0944F093
:100C8800020407F1B0479B00C8F8F44007F58067F5
:100C9800D8F8F44009FA03F904F002040194019C1D
:100CA800BC6824EA090A4D4CA0426CD004F5806463
:100CB800A0426AD04A4CA0426CD04A4CA0426ED0A6
:100CC800494CA04270D0494CA04272D0DFF828911C
:100CD800484573D0DFF82491484574D0DFF8209157
:100CE800484575D0DFF81C9148450CBF4FF00909FD
:100CF8004FF00A0909FA03F343EA0A03D44301351A
:100D0800BB60F703DCF800304CBF13432340B70344
:100D18004FF0B047CCF80030DCF804304CBF134338
:100D28002340CCF804303B68F7024FF0B0474CBF83
:100D380013432340B6023B607B6854BF04EA0302B6
:100D48001A434FF0B043102D5A607FF43EAF03B002
:100D5800BDE8F08F4FEA450A0324D0F800B009F146
:100D6800FF3906EA040704FA0AF4B9F1010F6FEA39
:100D7800040407FA0AF70BEA040B47EA0B070760B3
:100D88003FF66CAF57E70023B6E74FF0010909FAC1
:100D980003F3B1E74FF0020909FA03F3ACE74FF0A8
:100DA800030909FA03F3A7E74FF0040909FA03F363
:100DB800A2E74FF0050909FA03F39DE74FF006098A
:100DC80009FA03F398E74FF0070909FA03F393E7E1
:100DD8004FF0080909FA03F38EE700BF0000025834
:100DE80000080258000C025800100258001402585B
:100DF800800000580044025800180258001C02588D
:100E080000200258002402580AB941837047018320
:100E1800704700BF002858D0F8B590F8363004461F
:100E280003F0FF02002B46D00223626994E8820097
:100E380084F836304FF6FF73012FC86808BF20F0DA
:100E48001E009A4203D020F4604020F0C000A3683E
:100E5800012F256A43EA0703666A43EA0503A56A80
:100E680043EA06031B4E43EA050306EA000643EA83
:100E7800060325D04FF6FF70824204D0A569E069C9
:100E88002A4302431343144ACB6091420AD0134BBE
:100E9800994207D0124B994219D00123002084F8B7
:100EA8003630F8BDE36A0020226B13434B620123FE
:100EB80084F83630F8BD80F8352002F003FFB3E738
:100EC800E068256928430343D4E701207047E36AB3
:100ED8004B62E2E7FEF119FF0024004000240058AD
:100EE80000280058704700BF704700BF704700BF18
:100EF800704700BF704700BF704700BF704700BF12
:100F080003681A68D10710B5044602D59A68D20753
:100F180031D41A68900702D59A68910731D41A68B3
:100F2800520702D59A68500732D41A68110702D5B9
:100F38009A68120733D41A68D00602D59A68D1067F
:100F480034D41A68920602D59A6890060CD41A68A6
:100F5800510602D59A68520600D410BD4022204698
:100F68005A60FFF7CBFF10BD202220465A60FFF7DA
:100F7800C3FF2368EBE701225A60FFF7B3FF23683A
:100F8800C7E7022220465A60FFF7AEFF2368C6E78C
:100F9800042220465A60FFF7A9FF2368C5E7082204
:100FA80020465A60FFF7A4FF2368C4E710222046B2
:100FB8005A60FFF79FFF2368C3E700BFF8B50368CF
:100FC8000446D90730D5A9490A6902F03802102A1F
:100FD80000F00C810A6902F03802182A00F000813A
:100FE8006368B3F5803F00F0A281002B00F009810F
:100FF800B3F5A02F9D4B1A6800F0C68122F4803209
:101008001A601A6822F480221A60FFF7A5F9974D32
:10101800064605E0FFF7A0F9801B642800F27181FD
:101028002B689B03F6D52368980731D58F4B1A692F
:1010380012F0380F00F0B9801A6902F03802182A45
:1010480000F0AF80E268002A00F0778187490B68DA
:101058000D4623F0190313430B60FFF77DF906468D
:1010680005E0FFF779F9801B022800F24A812B6816
:101078005F07F6D569684FF47C3393FAA3F3B3FAA4
:1010880083F2236921F47C3193400B436B6023681E
:10109800D90631D575490A6902F03802082A00F0E4
:1010A8001A810A6902F03802182A00F00E81E369F1
:1010B800002B00F028816D4B1A681D4642F0800213
:1010C8001A60FFF749F9064605E0FFF745F9801B66
:1010D800022800F216812B68DB05F6D569684FF007
:1010E800F84393FAA3F3B3FA83F2236A21F0F841A1
:1010F80093400B436B6023681D0717D56369002B6A
:1011080000F09680594B5A6F1D4642F001025A670B
:10111800FFF722F9064605E0FFF71EF9801B0228B3
:1011280000F2EF806B6F9807F6D523689A0617D5FB
:10113800A369002B00F015814C4B1A681D4642F438
:1011480080521A60FFF708F9064605E0FFF704F930
:10115800801B022800F2D5802B689F04F6D52368EF
:10116800590778D4626AD2B1404B196901F0380145
:10117800182944D0022A1A6800F00E8122F08072E1
:101188001C461A60FFF7E8F8054605E0FFF7E4F8A3
:10119800401B022800F2B58023689B01F6D400208A
:1011A800F8BD9B6A99077FF44DAF304BE1681B6827
:1011B8005A0700D519B32D4A1368154623F01903A9
:1011C8000B431360FFF7C8F8064605E0FFF7C4F8BD
:1011D800801B022800F295802B685B07F6D549E74B
:1011E8008A6A02F00302022A7FF4FAAE1F4A1268E2
:1011F80092037FF519AF6268002A7FF415AF0120CA
:10120800F8BD1A4B1A681D4622F480321A601A6813
:1012180022F480221A60FFF79FF8064604E0FFF7E1
:101228009BF8801B64286CD82B689F03F7D4FAE6D8
:101238000E4B5A6F1D4622F001025A67FFF78CF8D1
:10124800064604E0FFF788F8801B022859D86B6F20
:101258009907F7D469E7064B1A681D4642F480726D
:101268001A60FFF779F8064609E000BF0044025803
:1012780000480258FFF770F8801B642841D82B6893
:10128800DA05F7D5A368012B00F00B81002B00F0DD
:10129800EE80052B8A4B1A6F00F0098122F00102BB
:1012A8001A671A6F22F004021A67FFF755F8844D7F
:1012B800074641F2883604E0FFF74EF8C01BB042FB
:1012C8001FD82B6F9B07F7D54CE78A6A02F00302F9
:1012D800012A7FF4ECAE7A4A1268D20502D5E26997
:1012E800802A8CD1764D4FF0F842686892FAA2F2C3
:1012F800B2FA82F1226A20F0F8408A4002436A601A
:10130800FAE60320F8BD6E4B1A681D4622F08002EB
:101318001A60FFF721F8064604E0FFF71DF8801B66
:101328000228EED82B68DF05F7D42368E4E6644A80
:10133800136843F48033136067E6614B1A681D46EF
:1013480022F001021A60FFF707F8064604E0FFF7EB
:1013580003F8801B0228D4D82B685807F7D42368D1
:1013680096E6574B1A681D4622F480521A60FEF71B
:10137800F3FF064604E0FEF7EFFF801B0228C0D803
:101388002B689804F7D4EAE642F480221A601A68B7
:1013980042F480321A6038E622F080721D461A60E4
:1013A800FEF7DAFF064604E0FEF7D6FF801B0228A8
:1013B800A7D82B689901F7D4AA6A4FF6F871414B60
:1013C800A06A1340E26A034343EA0213AB62A26BCA
:1013D800636B501E266B013BE26B0004013E5B020F
:1013E800013A00F4FE00C6F308069BB21206034356
:1013F80002F0FE42334313432B63686B91FAA1F367
:101408003149B3FA83F2A36C01402D4E93400B434C
:101418006B63EB6A226C23F00C031343EB62EB6AF9
:10142800626C23F002031343EB62EB6A43F48033EC
:10143800EB62EB6A43F40033EB62EB6A43F480231C
:10144800EB62EB6A43F00103EB622B6843F08073B5
:101458002B60FEF781FF044605E0FEF77DFF001BC9
:1014680002283FF64EAF33689A01F6D597E6144B3B
:1014780041F288371A6F1D4622F001021A671A6F67
:1014880022F004021A67FEF767FF064605E0FEF73A
:1014980063FF801BB8423FF634AF2B6F9807F6D432
:1014A80060E6074A136F43F001031367FDE642F055
:1014B80004021A671A6F42F001021A67F5E600BFC4
:1014C800004402580CFCFFFF0700FFFF474A13695E
:1014D80003F03803102B4BD0182B07D00BB144481E
:1014E80070471368990645D44248704710B4946A07
:1014F800906AD16A04F00304536BC0F3051001F03D
:101508000101012CC3F3CC0301FB03F107EE901A90
:10151800B8EEE77A34D03ED3022C31D1136BF7EE14
:10152800006A9FED356AC3F3080307EE903A334B20
:10153800F8EEE77AB3FBF0F3E7EE067A07EE103A37
:10154800B8EEC77A77EEA67A67EE877A274B5DF80A
:10155800044B1B6BC3F34623013307EE103AF8EE36
:10156800C76A87EEA67AFCEEC77A17EE900A70472C
:101578002248704713681F48C3F3C103D840704717
:10158800136BF7EE006A9FED1C6AC3F3080307EEBE
:10159800903A174BCCE713689B061CD51168B7EE39
:1015A800006A126BC1F3C101124BC2F30802DFEDEE
:1015B800125ACB4007EE902AF8EEE76AB3FBF0F335
:1015C800E7EE256A07EE903AF8EEE77A36EE867A85
:1015D80067EE877ABAE7136BF7EE006A9FED066A43
:1015E800C3F3080307EE903A024BA1E70044025800
:1015F80000093D000090D003000000390024F400E9
:10160800694A136803F007038B420BD2136823F06F
:1016180007030B431360136803F00703994201D0D3
:101628000120704703682DE9F0419C0706D55F4CFF
:10163800C568A26922F00F022A43A2610646D807AC
:101648000C462FD5594AB168936923F470630B434C
:10165800936173681268022B00F09E80032B00F0E0
:101668009480012B00F09C8055072BD54F4D41F2FB
:1016780088382A6922F0070213432B61FEF76CFEB3
:1016880073680746022B64D0032B6DD0012B05D15C
:1016980075E0FEF761FEC01B40457AD82B6913F050
:1016A800380FF6D1404A136803F007039C420CD266
:1016B800136823F0070323431360136803F0070339
:1016C8009C4202D00120BDE8F0813368580706D556
:1016D800364930698A6922F0700202438A61190723
:1016E80006D532497069CA6922F070020243CA619C
:1016F800DA0606D52D49B069CA6922F4E0620243C8
:10170800CA619B0606D5294AF169136A23F070035A
:101718000B431362FFF7DAFE244B01464FF4807245
:101728009B6992FAA2F2B2FA82F203F47063204C37
:101738000020D3401F4AE35C21FA03F31360FEF74D
:10174800C7FD0020BDE8F081FEF706FEC01B40453E
:101758001FD82B6903F03803102BF5D1A2E7FEF749
:10176800FBFDC01B404514D82B6903F03803182B28
:10177800F5D197E7FEF7F0FDC01B404509D82B6966
:1017880003F03803082BF5D18CE792013FF56EAFD3
:1017980098E70320BDE8F08191033FF567AF91E733
:1017A800D7053FF563AF8DE700200052004402588B
:1017B80060420008140000202C4A936A03F00303D7
:1017C800032B50D0136823F0806370B5136006466E
:1017D8001446FEF7C1FD054604E0FEF7BDFD401BBB
:1017E80002283ED823681A01F7D4A36A326823F482
:1017F8007C331E4D43EA0233A362F268B368511E7C
:101808007068013B3269090401385B02013A01F44E
:10181800FE01C0F308009BB212060B4302F0FE4221
:1018280003431343A363E36A726923F0C0031343BA
:10183800E362E36AB26923F020031343E362236897
:1018480043F080632360FEF787FD044604E0FEF75B
:1018580083FD001B022804D82B681B01F7D5002044
:1018680070BD032070BD0120704700BF00440258BE
:101878002C4A936A03F00303032B50D0136823F018
:10188800805370B5136006461446FEF765FD05469D
:1018980004E0FEF761FD401B02283ED823689A0049
:1018A800F7D4A36A326823F07C731E4D43EA0253CF
:1018B800A362F268B368511E7068013B326909047B
:1018C80001385B02013A01F4FE01C0F308009BB243
:1018D80012060B4302F0FE42034313432364E36AF8
:1018E800726923F440631343E362E36AB26923F441
:1018F80000731343E362236843F080532360FEF7C9
:101908002BFD044604E0FEF727FD001B022804D83F
:101918002B689B00F7D5002070BD032070BD012007
:10192800704700BF004402582DE9F8430368044695
:1019380013F0006515D0426EB2F5801F00F00E85D9
:1019480040F25785B2F5001F00F0BB84B2F5401F86
:1019580040F096858D480025016D21F440110A4319
:101968000265DE050AD5626D042A00F2B485DFE857
:1019780012F08A04910479045A045A042E469805F0
:101988001FD5A26D802A00F0DC8400F26285002A4F
:1019980000F08B84402A40F063857C4A201DD36A7E
:1019A80043F40023D362FFF707FF23680646002E9F
:1019B80040F083847549A06D0A6D22F4E0720243F9
:1019C8000A65590523D5D4F8A420B2F5800F00F094
:1019D800DC8400F21785002A00F08E84B2F5001F1F
:1019E80040F01885694A201DD36A43F40023D36266
:1019F800FFF7E2FE23680646002E40F0858463491F
:101A0800D4F8A4008A6D22F4600202438A651A059C
:101A180023D5D4F8A820B2F1007F00F0858400F225
:101A28000B85002A00F05C84B2F1807F40F00C85C1
:101A3800564A201DD36A43F40023D362FFF7BCFE45
:101A480023680646002E40F053845049D4F8A80075
:101A58008A6D22F0E06202438A659F010ED5A26C6E
:101A6800102A00F0EB8340F20685202A00F09083CC
:101A7800302A00F0978301263543EDB2D80421D5EA
:101A8800E26DB2F5005F00F0738400F2C884002AAA
:101A980000F03E84B2F5805F40F0C9843B4A201DC7
:101AA800D36A43F40023D362FFF786FE2368064611
:101AB800002E40F035843549E06D0A6D22F4E0428D
:101AC80002430A6599041FD5226EB2F5003F00F063
:101AD800BB8300F2F8826AB1B2F5803F40F0FF8222
:101AE8002A4A201DD36A43F48013D362FFF764FEA9
:101AF80023680646002E40F0F3822449206E0A6DC2
:101B080022F4E02202430A655A0421D5D4F8AC2015
:101B1800B2F1005F00F05D8300F295826AB1B2F124
:101B2800805F40F09C82194A201DD36A43F48013D9
:101B3800D362FFF741FE23680646002E40F09082EC
:101B48001249D4F8AC008A6D22F0E04202438A655B
:101B58001F040ED5E26EB2F1805F00F04683B2F149
:101B6800005F00F0BE81002A00F0C58101263543E0
:101B7800EDB2D80120D5626C032A00F2A082DFE81A
:101B880012F01100E7020700110000BF00440258DC
:101B9800474A201DD36A43F40013D362FFF70CFEB3
:101BA80023680646002E40F08B824149606CCA6C5F
:101BB80022F003020243CA64590200F1D581DF070B
:101BC80043D5A26F282A00F27682DFE812F03400AB
:101BD8007402740274027402740274027402D202EF
:101BE800740274027402740274027402740229008A
:101BF800740274027402740274027402740234006F
:101C0800740274027402740274027402740234005E
:101C1800740274027402740274027402740234004E
:101C2800234A04F12400D36A43F40003D362FFF784
:101C38001FFE23680646002E40F03E821C49A06F16
:101C48004A6D22F0380202434A65980720D5626F30
:101C5800052A00F20882DFE812F01100810206006E
:101C6800110011001100124A04F12400D36A43F450
:101C78000003D362FFF7FCFD23680646002E40F000
:101C8800F3810B49606F4A6D22F0070202434A65EF
:101C9800590725D5D4F89020052A00F20882DFE8F4
:101CA80012F014004C02090014001400140000BFC4
:101CB80000440258B14A04F12400D36A43F40003F3
:101CC800D362FFF7D5FD23680646002E40F0F08169
:101CD800AA49D4F890008A6D22F0070202438A6567
:101CE8009A0621D5D4F88C20B2F1005F00F0658205
:101CF80000F2CD816AB1B2F1805F40F0D4819F4A91
:101D0800201DD36A43F40023D362FFF755FD2368EF
:101D18000646002E40F0C8819849D4F88C004A6DD8
:101D280022F0E04202434A655F0621D5D4F89820A4
:101D3800B2F5006F00F05F8200F299816AB1B2F5E6
:101D4800806F40F0A0818D4A201DD36A43F40023A0
:101D5800D362FFF731FD23680646002E40F09481D8
:101D68008649D4F898008A6D22F4E05202438A65C5
:101D7800180621D5D4F89C20B2F5804F00F0478290
:101D880000F251816AB1B2F5005F40F058817B4A98
:101D9800201DD36A43F40023D362FFF70DFD2368A7
:101DA8000646002E40F04C817449D4F89C008A6D98
:101DB80022F4604202438A6519070BD5D4F88010D3
:101DC800B1F5805F00F0FF826C48426D22F440520A
:101DD8000A434265DA060BD5D4F89410B1F5807F32
:101DE80000F0FC826548826D22F440720A438265E5
:101DF8001F030FD5D4F8A020B2F5803F00F08680ED
:101E0800B2F5003F00F08D80002A00F0D182012653
:101E18003543EDB2580310D5D4F88420B2F5001F2D
:101E280000F08B80B2F5401F00F09280B2F5801F61
:101E380000F0B88201263543EDB2D9030AD5E26C29
:101E4800002A00F05F81B2F5803F00F06B81012627
:101E58003543EDB29A0000F1CD809F0311D5E26FB2
:101E6800B2F5807F00F03F8140F28E81B2F5007FAD
:101E780000F03E81B2F5407F00F03A8101263543FB
:101E8800EDB2DE0206D53D49206F0A6D22F0004210
:101E980002430A65D80007D53849D4F8B4000A695E
:101EA80022F4804202430A61990206D53349A06EA2
:101EB8000A6D22F0807202430A655A0009D52F4A3A
:101EC800116921F4004111611169D4F8B800014386
:101ED8001161002BC0F29B80281C18BF0120BDE8AF
:101EE800F883264A201DD36A43F48013D362FFF790
:101EF80063FC23680646002E7FF439AE1F49E06E66
:101F08000A6D22F0405202430A6532E61B4A04F188
:101F18002400D36A43F08073D362FFF7A9FC2368D7
:101F28000646002E7FF474AF1449D4F8A0008A6DD9
:101F380022F4403202438A656CE7104A04F1240017
:101F4800D36A43F40003D362FFF792FC2368064682
:101F5800002E7FF470AF0949D4F884004A6D22F44A
:101F6800401202434A6568E7054B1A681F4642F467
:101F780080721A60FEF7F0F980460AE000440258C1
:101F880000480258FEF7E8F9A0EB0800642800F2C0
:101F98006C823B68DA05F5D5002E40F06782B04ABE
:101FA800D4F8B030116F594011F4407F0BD0116F45
:101FB800106F21F4407140F480301067106F20F4E6
:101FC800803010671167B3F5807F00F06A8203F4F0
:101FD8004072B2F5407F00F05A82A1490A6922F4A2
:101FE8007C520A619E4AC3F30B03116F0B431367BC
:101FF8002368E4E59A4A04F12400D36A43F0807325
:10200800D362FFF735FC05432368EDB225E7944A10
:10201800281C216DD36C18BF012023F040530B43BB
:10202800D364BDE8F883B2F5004F3FF4BAAEB2F519
:10203800204F3FF4B6AEB2F5C04F3FF4B2AE012622
:102048003543EDB2B8E6B2F1804F3FF476ADB2F168
:10205800A04F3FF472ADB2F1405F3FF46EAD012680
:102068003543EDB274E501263543EDB210E6B2F51D
:10207800805F3FF472AEB2F5A05F3FF46EAEB2F58A
:10208800406F3FF46AAE01263543EDB270E6B2F117
:10209800804F3FF43EAEB2F1A04F3FF43AAEB2F1FA
:1020A800405F3FF436AE01263543EDB23CE60126EB
:1020B8003543EDB214E601263543EDB2C5E50126F8
:1020C8003543EDB278E5B2F5802F3FF413ADB2F5A4
:1020D800A02F3FF40FADB2F5403F3FF40BAD012602
:1020E8003543EDB210E55E48C16A41F40031C16282
:1020F800002E7FF4C4AE5A48416D21F440710A4362
:102108004265BEE65649CA6A42F40032CA62002EE7
:102118007FF49EAE5249E06CCA6C22F480320243CE
:10212800CA6497E64E4A201DD36A43F40013D3626B
:10213800FFF742FB23680646E9E7494A201DD36AB0
:1021480043F48013D362FFF737FB23680646BCE5E8
:102158004349CA6A42F40032CA6223E5404A201D54
:10216800D36A43F48013D362FFF726FB236806463D
:1021780084E53B4A201DD36A43F48013D362FFF7FA
:102188001BFB2368064656E5002A7FF477AEAFE7C7
:10219800334A201DD36A43F40013D362FFF70CFBC4
:1021A80023680646002E7FF467AC2D49A06CCA6CE4
:1021B80022F030020243CA6460E4294A04F1240090
:1021C800D36A43F08073D362FFF752FB2368064655
:1021D8009FE5234A04F12400D36A43F40003D36241
:1021E800FFF746FB23680646A7E41D49CA6A42F47E
:1021F8000032CA627FE61A4A04F12400D36A43F027
:102208008073D362FFF734FB23680646A5E5144ABA
:1022180004F12400D36A43F08073D362FFF728FBEC
:1022280023680646BDE52E464EBB0D49606D0A6D16
:1022380022F0070202430A65FFF7A1BB0849CA6AF0
:1022480042F40032CA62ADE7054A04F12400D36AB9
:1022580043F40003D362FFF70BFB2368064649E407
:10226800004402589D4A04F12400D36A43F48003D1
:10227800D362FFF7FDFA06462368002ED5D0354312
:10228800EDB2FFF77CBB95492E46CA6A42F400328C
:10229800CA62C9E7914A201DD36A43F40023D36276
:1022A800FFF78AFA23680646BEE78C49CA6A42F4F1
:1022B8000032CA62002E3FF47DAB3543EDB2FFF722
:1022C80080BB864A2430D36A43F08073D362FFF719
:1022D800CFFA0546002D00F0D6802368FFF741BBF2
:1022E8007E49CA6A42F40032CA62002E3FF4ADAB9E
:1022F8003543EDB2FFF7B1BB7849CA6A42F4003200
:10230800CA62002E3FF47BAB3543EDB2FFF77FBBCB
:102318007249CA6A42F40032CA62002E3FF4CBAB5B
:102328003543EDB2FFF7CEBB6C4A04F12400D36A03
:1023380043F48003D362FFF79BFA23680646FFF74E
:1023480081BB664A04F12400D36A43F48003D36254
:10235800FFF78EFA23680646FFF729BB5F4A043069
:10236800D36A43F40013D362FFF726FA0546B1E7B0
:102378005A4A04F12400D36A43F48003D362FFF776
:1023880077FA23680646FFF793BB544A04F1240002
:10239800D36A43F48003D362FFF76AFA23680646D8
:1023A800FFF72ABB4D49CA6A42F40032CA62CFE538
:1023B8004A4A201DD36A43F40023D362FFF7FCF98D
:1023C80023680646ADE504F12400FFF751FA434AB5
:1023D800D36A43F08073D3622368FBE404F12400DA
:1023E800FFF746FA3D4AD36A43F08073D362236805
:1023F800FEE4002A44D13948C16A41F40031C1627F
:10240800FFF7A8BAB2F5C00F3FF4F6AAB2F5000F6D
:102418003FF4F2AA01263543EDB2FFF7F8BAB2F558
:10242800405F3FF445ABB2F5804F3FF441AB012626
:102438003543EDB2FFF746BBB2F1407F3FF402AB44
:10244800B2F1806F3FF4FEAA01263543EDB2FFF7E3
:1024580004BBC02A3FF4ABAAB2F5807F3FF4A7AA19
:1024680001263543EDB2FFF7ACBA0326354323689E
:10247800EDB2FFF7A4BB002A3FF494AEFFF7FBBA16
:102488000125FFF76EBA626E2368FFF763BA134837
:10249800134A016902EA131221F47C510A430261CA
:1024A800A0E5FDF759FF0D4F814641F2883805E058
:1024B800FDF752FFA0EB0900404505D83B6F9B078D
:1024C800F6D5D4F8B03082E545F003052368032635
:1024D800EDB2FFF774BB0126D1E600BF00440258F5
:1024E800CFFFFF0030B4494CA56AA16AE26A05F043
:1024F8000305E36BC1F3053102F01002012DC3F3AC
:10250800CC0302FB03F207EE902AB8EEE77A02D07A
:1025180051D3022D44D0A36BF7EE006A9FED3C6ABD
:10252800C3F3080307EE903A3A4BF8EEE77AB3FBA9
:10253800F1F3E7EE067A07EE103AB8EEC77A77EECF
:10254800A67A67EE877A314A936BC3F34623013341
:1025580007EE103AB8EEC77A30BCC7EE876AFCEED1
:10256800E66AC0ED006A936BC3F30643013307EED6
:10257800103AB8EEC77AC7EE876AFCEEE66AC0ED95
:10258800016A936BC3F30663013307EE103AB8EEA2
:10259800C77AC7EE876AFCEEE66AC0ED026A704742
:1025A800A36BF7EE006A9FED1A6AC3F3080307EE00
:1025B800903A194BB9E723689B061CD52368B7EEF8
:1025C800006AA26BC3F3C104144BC2F30802DFED27
:1025D800105AE34007EE902AF8EEE76AB3FBF1F3EE
:1025E800E7EE256A07EE903AF8EEE77A36EE867A55
:1025F80067EE877AA7E7A36BF7EE006A9FED046A98
:10260800C3F3080307EE903A044B8EE700440258E0
:102618000000003900093D000024F4000090D003B8
:1026280030B4494CA56AA16AE26A05F00305636CF7
:10263800C1F3055102F48072012DC3F3CC0302FBF0
:1026480003F207EE902AB8EEE77A02D051D3022DB2
:1026580044D0236CF7EE006A9FED3C6AC3F308038D
:1026680007EE903A3A4BF8EEE77AB3FBF1F3E7EE70
:10267800067A07EE103AB8EEC77A77EEA67A67EED2
:10268800877A314A136CC3F34623013307EE103AB5
:10269800B8EEC77A30BCC7EE876AFCEEE66AC0EDD2
:1026A800006A136CC3F30643013307EE103AB8EE21
:1026B800C77AC7EE876AFCEEE66AC0ED016A136C5A
:1026C800C3F30663013307EE103AB8EEC77AC7EED4
:1026D800876AFCEEE66AC0ED026A7047236CF7EE83
:1026E800006A9FED1A6AC3F3080307EE903A194B84
:1026F800B9E723689B061CD52368B7EE006A226CED
:10270800C3F3C104144BC2F30802DFED105AE340CF
:1027180007EE902AF8EEE76AB3FBF1F3E7EE256AD5
:1027280007EE903AF8EEE77A36EE867A67EE877A21
:10273800A7E7236CF7EE006A9FED046AC3F308036A
:1027480007EE903A044B8EE7004402580000003927
:1027580000093D000024F4000090D00330B4494C37
:10276800A56AA16AE26A05F00305636BC1F3051166
:1027780002F00102012DC3F3CC0302FB03F207EEC2
:10278800902AB8EEE77A02D051D3022D44D0236BB9
:10279800F7EE006A9FED3C6AC3F3080307EE903A30
:1027A8003A4BF8EEE77AB3FBF1F3E7EE067A07EE79
:1027B800103AB8EEC77A77EEA67A67EE877A314A8A
:1027C800136BC3F34623013307EE103AB8EEC77A0A
:1027D80030BCC7EE876AFCEEE66AC0ED006A136B90
:1027E800C3F30643013307EE103AB8EEC77AC7EED3
:1027F800876AFCEEE66AC0ED016A136BC3F30663F1
:10280800013307EE103AB8EEC77AC7EE876AFCEED6
:10281800E66AC0ED026A7047236BF7EE006A9FED27
:102828001A6AC3F3080307EE903A194BB9E723680D
:102838009B061CD52368B7EE006A226BC3F3C1045C
:10284800144BC2F30802DFED105AE34007EE902A5A
:10285800F8EEE76AB3FBF1F3E7EE256A07EE903A84
:10286800F8EEE77A36EE867A67EE877AA7E7236B83
:10287800F7EE006A9FED046AC3F3080307EE903A87
:10288800044B8EE7004402580000003900093D005F
:102898000024F4000090D003B0F5806F00B585B037
:1028A80060D016D8B0F5807F3AD0B0F5007F22D13D
:1028B8004C4A136D03F4E073802B4CD060D843B3BB
:1028C800402B18D101A8FFF70DFE019805B05DF85F
:1028D80004FBB0F5006F12D0B0F5805F0BD1414A10
:1028E800136D03F4E043B3F5005F34D02CD883B103
:1028F800B3F5805FE6D0002005B05DF804FB394AE7
:10290800936D03F0E063B3F1007F24D03ED8002B31
:1029180053D101A8FFF722FF029805B05DF804FB28
:10292800304B1B6D03F00703042BE4D801A252F8C7
:1029380023F000BF1B290008CD2800085F290008E4
:1029480057290008CB290008B3F5405F31D1264844
:1029580005B05DF804FB01A8FFF762FE019805B019
:102968005DF804FB1F4A936D03F46003B3F5800F11
:10297800F1D012D8002BCCD0B3F5001FA2D0BAE703
:10298800C02BE4D0B3F5807F0DD0B4E7B3F1407F1E
:10299800DDD0B3F1806F06D0ADE7B3F5C00FD6D068
:1029A800B3F5000FA7D1D36C13F040530ED10F48E5
:1029B800A2E7B3F5804FF6D09DE7B3F1807F81D0D1
:1029C80099E7084BDB6C13F04053F0D0B3F1805F0C
:1029D80005D0B3F1005F064818BF00208CE7054812
:1029E8008AE700BF004402580080BB000090D00373
:1029F8000024F40000093D00002800F070810268FE
:102A08002DE9F84F90F83460012E00F02881BB4B77
:102A18009A4216D020339A4213D003F578739A421B
:102A280000F0348120339A4200F0308103F5787346
:102A38009A4200F0938120339A4200F08F81B04D82
:102A480000E0B04D90F88D30044603F0FF01002BF4
:102A580000F02581AC4B0220AC491B6884F88D003E
:102A6800A1FB031311681B0B21F480318340116013
:102A780002E01168C80308D513F1FF33F9D2D4F87E
:102A8800903043F04003C4F890306B6C012E23F073
:102A980001036B6400F01381E368012B00F0F480FC
:102AA800022B0CBF20210021A368022B7AD0032B14
:102AB80076D0012BE36929600CBF4FF480684FF092
:102AC8000008002B74D1D4F814E0206AD4F824C08C
:102AD800256D636833F00201E16C40F0BA8001298A
:102AE80014BF4FF400760026276C013D616C4FF24D
:102AF800200A3B431768DFF83C924FF0000B0B436A
:102B0800A16C0B43A16A0B4321690B43804943EA3B
:102B18000803394043EA0E03116017684FF0010EAD
:102B280043EA0C03A1693B43E76A43EA005339438C
:102B3800206B3343276E0143A06D1360536807432E
:102B4800744E584603EA0909E36DC2F804901F431E
:102B580053681943636D5160013B916847EA032745
:102B6800636E0E40A16E966043EA01069168236F7A
:102B78000F43E16E46EA03433D430139956043EA5A
:102B88000123D16801EA0A01D160D1680B43D360FF
:102B9800C4F890B084F88CB084F88DE0BDE8F88F64
:102BA80041F00101E3694FF400682960002B8AD0E5
:102BB800524B9A4200F095805748101AB0FA80F0AC
:102BC8004009002840F08D80544B9A4200F0B480B0
:102BD80020339A4200F0B080514B9A4200F087802F
:102BE80020339A4200F083804E4B9A4200F0BE8018
:102BF8004D4B9A4200F0B480D4F814E0BEF5002F93
:102C080000F0A080D4F824C000EB8000E369BCF198
:102C1800806F4FEA40014FEA0320256D0CBF022365
:102C2800012303FB00F3B1FBF3F1404BA3FB0103CA
:102C3800D80800EB80032062A1EB430109297FF447
:102C480048AF6368013033F002012062E16C3FF461
:102C580046AF012914BF00264FF4007644E7274BFE
:102C68002E4C2F499A4218BFA24214BF01230023B9
:102C78008A420CBF002303F00103C3B1294B9A42D7
:102C880015D00120BDE8F88F10210DE790F88D30A0
:102C98000446274D03F0FF01002B7FF4DBAE80F8DC
:102CA8008C1001F0F7F8226894F83460D2E6436893
:102CB800012BE6D1016C00293FF4A9AEE1E73021F0
:102CC80091FAA1F1A36BB1FA81F1E06B013B8B4062
:102CD80003436B646B6C43F001036B64DCE6012017
:102CE80070474FF48070FFF7D7FD22686CE74FF408
:102CF8000070FFF7D1FD226876E700BF0458014055
:102D08000054005800580140140000201BECCB95DB
:102D180010C005FC0080F8FF24580140045C014005
:102D2800046001400454005824540058CDCCCCCC45
:102D3800005C0140F01FFFFF4FF40070FFF7ACFD8F
:102D4800226849E700EB8000256DE3694100D4F86B
:102D580024C003FB05F3B1FBF3F166E7064D71E60A
:102D68004FF40060FFF798FD226845E74FF4806054
:102D7800FFF792FD22683BE70060014038B590F804
:102D88008C30012B44D00168012204460B6880F87E
:102D98008C20980328D41F4B4FF0FF3200251E4883
:102DA8001B680D61A0FB03038A610A681B0B22F4F0
:102DB80080329B000A6002E00A68D20308D513F14A
:102DC800FF33F9D2D4F8903043F04003C4F8903080
:102DD8004B680022012543F0080310464B6084F835
:102DE8008D5084F88C2038BD0B68E06F23F40033D5
:102DF8000B6020B1FDF7C8FC08B1012038BDD4F83C
:102E0800800018B1FDF7C0FC0028F6D12168C2E7A0
:102E1800022038BD140000201BECCB95704700BF82
:102E280090F88D20002A59D0016803464A6970B588
:102E380015070C6982B00E6801D5250769D4D50736
:102E48000CD490071ED5A5071CD5D3F884300222D0
:102E58008A61ABB102B0BDE87040184714F00105B3
:102E6800EFD0012218468A6193F88D10D3F890208C
:102E7800222918BF02251543C3F89050FFF7CEFF4B
:102E880002B070BD900614D5A50612D5D3F89020CF
:102E9800B40342F00402C3F8902016D5DA6F002A72
:102EA8004DD02B4B1046136502B0BDE87040FDF7BE
:102EB800D7BC500613D5650611D5D3F89020B403B6
:102EC80042F00802C3F89020E8D418460193FFF7AF
:102ED80055FF019B1846FFF7A1FFD1E77047500740
:102EE8001DD565071BD5D3F8902016F4003642F09F
:102EF8002002C3F89020D1D14FF0FF3401220E6197
:102F080018468C61A3F87A6083F88D20FFF786FF56
:102F1800B6E7D0F8883002B0BDE870401847D00650
:102F2800AED5E206ACD5102218468A61D3F89020B7
:102F380042F01002C3F89020FFF770FFA0E7D3F823
:102F48008030002B9CD0024A18461A65ACE700BFB7
:102F58005D2F000810B5846B4FF0FF320020216808
:102F68000B6823F400330B6008618A61D4F8903051
:102F7800202B1BD0124B13481B680A68A0FB0303C5
:102F880022F480321B0B0A609B0002E00A68D2031D
:102F980008D513F1FF33F9D2D4F8903043F0400349
:102FA800C4F890304B6843F008034B6001220023BB
:102FB800204684F88D20A4F87A30FFF72FFF10BD43
:102FC800140000201BECCB9510B338B590F82C30CA
:102FD80004460D4603F0FF02ABB10223211D206811
:102FE80084F82C3000F088FA294694E8050000F0AF
:102FF800BFFA084A01210020136843F00043136018
:1030080084F82C1038BD80F82D2000F0C3FEE4E7CA
:103018000120704700400052704700BF0268926963
:10302800D30700D4704710B50446FFF7F5FF2268B0
:10303800536943F00103536110BD00BF38B590F8E0
:103048002C30DBB2022B01D1184638BD04460223CE
:103058000D46006884F82C3000F0D8FA2B68002060
:10306800022B0CBF0523012384F82C3038BD00BF88
:1030780090F82C30DBB2022B01D11846704710B5FE
:1030880002230446006884F82C3000F0D5FA0123A6
:10309800002084F82C3010BD03682C495A6910B4FC
:1030A8009C6944F008049C619C6944F010049C618C
:1030B8001C6824F001041C601C692140196199688E
:1030C80021F44041996090F88110042901D09106BB
:1030D80030D490F88110032901D054061FD49105EB
:1030E80009D5D0F8841041F00101C0F8841099691D
:1030F80041F400719961D20509D5D0F8842042F0D5
:103108000802C0F884209A6942F480729A61002308
:103118005DF8044BA0F86230A0F86A307047D0F828
:10312800841041F00401C0F88410996941F040010D
:103138009961D4E7D0F8841041F08001C0F8841078
:10314800996941F020019961C3E700BF94FCFFFF32
:10315800002800F0A980554A0021F8B5036881626B
:10316800934215D0A2F57842934211D002F58062BD
:1031780093420DD0C2680F2A08D8C16B02F1080526
:103188004C09ED0804FB0555082D09D90120F8BDA7
:10319800C268C16B02F108054C09ED0804FB05552E
:1031A800424E434CA34218BFB34252D004F5806448
:1031B800A3424ED0044690F8810000F0FF05002895
:1031C80050D04FF0000E0220A769A56B84F881004B
:1031D800B7F1806F186820F001001860606859D056
:1031E800666B47EA060C676A26694CEA070C67694A
:1031F8004CEA060C266A4CEA070CE76C4CEA060C0B
:10320800A6684CEA07073E43A76C3E43A76D3E43BA
:10321800E769394306430A43354342EA0E029A6096
:10322800DD6050BB9A6822F4C05242F400629A6092
:103238009A6822F4C06242F480629A601A6D22F0A1
:1032480001021A6500200123C4F8840084F8813043
:10325800F8BD102D9AD8044690F8810000F0FF05BB
:103268000028AED184F88050204600F061FD236824
:10327800D4F828E0E268E16BA5E71A6D22F00102B4
:103288001A654202DED5DA68616D22F000420A430F
:10329800DA60D7E7B0F5800FA2D1002DA0D11E6863
:1032A80046F480561E609BE70120704700300140BD
:1032B80000380040704700BF704700BF704700BF2C
:1032C800704700BF03681A6959692DE9F04102EA9D
:1032D8000105D3F808E0044690F8816005F041073D
:1032E800012F00F0C98005F02200022800F0CA80F2
:1032F800280729D59A691EF4404FF6B242F0080211
:103308009A619A6942F010029A619A6942F40062DD
:103318009A611A6922F008021A6178D0042E00F026
:10332800C780A26FD269002A71D0032E00F0BB803B
:10333800E26FD269002A6AD0052E40F09B802046B1
:10334800FFF7BCFFBDE8F081100707D5090505D5D3
:103358009A6942F400629A61BDE8F08115F4587FD9
:1033680000F088806A0609D5D4F8842042F0040267
:10337800C4F884209A6942F040029A61AF0509D5E1
:10338800D4F8842042F00102C4F884209A6942F4F7
:1033980000729A61EE0509D5D4F8842042F008023B
:1033A800C4F884209A6942F480729A61AD0609D5FE
:1033B800D4F8842042F08002C4F884209A6942F04C
:1033C80020029A61D4F88420002A53D019681EF488
:1033D800404F404A21F001011960196902EA0102CF
:1033E8001A616ED09A68E16F22F440429A6021B166
:1033F800394B08460B65FDF733FAA36F002B39D01C
:10340800354A18461A65BDE8F041FDF729BA9A68A9
:1034180012F4404F1ED1B4F86A2092B2D2B1626E53
:103428000EE01B6B42F8043B6266B4F86A30013B5D
:103438009BB2A4F86A30B4F86A309BB253B12368DF
:10344800E1680F29EDD8072926D91B8E22F8023BFF
:103458006266EAE72046FFF71FFE012384F8813001
:10346800D4F884309BB9052E3FF469AF042E23D0DD
:10347800032E18D0BDE8F08105F02205036F9847A8
:10348800022DF7D1636F2046BDE8F041184720466A
:10349800FFF716FFBDE8F08193F830301370626EC5
:1034A80001326266C1E72046FFF704FFBDE8F081FC
:1034B800E26FD269002AAAD02046FFF7FDFEBDE8D8
:1034C800F0810123204684F88130FFF7F9FEBDE83A
:1034D800F08100BF94FCFFFFE534000808B5002226
:1034E800836B0121A3F86A201846A3F8622083F8A9
:1034F8008110FFF7E5FE08BD0B68012BF0B418D06A
:1035080004681A4B4A6823408D68CC681A430B69D3
:103518004F692A438E69CD6922430C6A496A13436D
:103528003B4333432B4323430B43F0BC036000204E
:10353800704707680D4B446827F4F8474A682340EA
:103548008E68CD6813430C69CA6933430E6A3A43DF
:103558002B434D6932434E6A2343896932432B43D7
:1035680002600B43F0BC4360002070470080FFFFFF
:10357800012AF0B421D04B6882680C685D1E02F005
:1035880070428B68671ECC6842EA05125E1E0D69A0
:10359800631E3A434C69013D896942EA0622013CAF
:1035A800013942EA033343EA054343EA045343EA51
:1035B8000163F0BC83600020704784684A68C36870
:1035C800561E0A6803F070438F68551E0E4A43EA78
:1035D8000613013FCE6822402B430D694C69013E1A
:1035E800896943EA0723013D42EA0632013C013971
:1035F80043EA054342EA045243EA01638260C36036
:103608000020F0BC704700BFFF0F0FFF4A680B682F
:1036180070B41343CE688A6883B043EA4623002413
:10362800013A05460194204643EA42130193019B5F
:103638002B6103B070BC704702460020536943EA0F
:1036480041015161704700BF70B584B01024012555
:103658000826002369464FF6FF7201940095044638
:1036680002960393FFF7EAFC50BB2846FCF77AFE64
:1036780002234FF6FF72694620460093FFF7DEFCEF
:1036880008BB03234FF6FF72694620460093FFF7F5
:10369800D5FCD8B90425202369464FF6FF72204689
:1036A80000950393FFF7CAFC98B920460621FFF757
:1036B800DFFC002814BF6FF00F00002004B070BDBD
:1036C8004FF0FF30FAE76FF00100F7E76FF0030003
:1036D800F4E76FF00700F1E710B400230C4CD9B2FF
:1036E8002268D1540133B3F1007FF8D1094A002090
:1036F800094B216812681B6801F1007102F18062B0
:103708005DF8044B03F10063097812881B68704761
:1037180010000020080000200C0000203C4B002175
:10372800DA681846F0B522F00402CDB0DA600191EB
:103738009A6942F440429A619B6903F440430193B9
:10374800019B83699B04FCD5324802240121002295
:10375800836A4FF4803E32270C2523F003030426A6
:10376800234383620AA8CDF82CE016971A950A918C
:103778001591139414941794199418961B921C92EB
:10378800FDF71CFC00B1FEE73F2108274FF48063DA
:1037980040250322049002910DEB0700214608936F
:1037A80003920597069507950995FDF729FF0346A6
:1037B80000B1FEE7DFF868E040F289114FF4A0227B
:1037C8001DA8209421941E9722972395249325932E
:1037D8002E9333954493CDF874E01F913592FEF7FC
:1037E800A3F8044600B1FEE70B4A0C4B1068A3FB94
:1037F80000308009FCF724FE3046FCF739FE2246EB
:1038080021464FF0FF30FCF7D3FD4DB0F0BD00BFAF
:10381800004802580044025814000020D34D62109A
:1038280080220001AE4C01254FF400782DE9804834
:1038380091B08027FCF770FD4FF4805BFFF76EFFB7
:10384800D4F8E0304021002243F00403A54816468E
:103858008946C4F8E030D4F8E03003F0040302935A
:10386800029BD4F8E03043F02003C4F8E030D4F8E9
:10387800E03003F020030393039BD4F8E03043F0D7
:103888008003C4F8E030D4F8E03003F080030493F8
:10389800049BD4F8E0302B43C4F8E030D4F8E0308F
:1038A8002B400593059BD4F8E0300B43C4F8E03077
:1038B800D4F8E0300B400693069BD4F8E03043F090
:1038C8001003C4F8E030D4F8E03003F01003079395
:1038D800079BD4F8E03043F00803C4F8E030D4F88C
:1038E800E03003F008030893089BFDF78DFA324691
:1038F80040F201417C48FDF787FA32464FF43071B7
:103908007A48FDF781FA324641467948FDF77CFA54
:10391800324629467748FDF777FA09A971480B9688
:103928000C96CDF824900A95FDF740F940F2014332
:1039380009A96D480B960C9609930A95FDF736F977
:103948004FF4307309A9694809930B960C960A95A8
:10395800FDF72CF909A966480B960C960A95CDF83F
:103968002480FDF723F909A962480B960C9609955E
:103978000A95FDF71BF9D4F8E0204FF480615E4BFF
:1039880042F400121846C4F8E020D4F8E0205E6043
:1039980002F400129E61DE610192584A1E62C3F869
:1039A8000C80019E1A6019619F60C3F814B0FCF77F
:1039B800B3FD00B1FEE7D4F8D8100246504B4FF4DF
:1039C800403641F001014FF0040AC4F8D810D4F889
:1039D800D8109F60032701F001011A615A619A61AA
:1039E800DA61DA621A63474A5860D860184600916B
:1039F8001E6200991A60C3F824A09F62FCF78CFD30
:103A0800064600B1FEE7024601460B203E4CFCF795
:103A1800CFFC0B20FCF706FD324631460C20FCF7A4
:103A2800C7FC0C20FCF7FEFC4FF4006237484FF04F
:103A380002080D974FF0050CC4F814900623226273
:103A48004FF4807708224FF0070909A92060204623
:103A580066602661E661C4F824B0A662C4F80880EE
:103A6800CDF82480CDF83880CDF83C80E260A7619D
:103A7800CDF82890CDF82CC00C93FFF7A5FA014695
:103A880000B1FEE7224BE026224A4FF4003B996240
:103A98001A604FF40052D9621A611F4A83F8341031
:103AA800996399651966596699660821DA61FF2252
:103AB80018649864D8649860586118461A675D60FD
:103AC800C3F818A0C3F80C80DF631F655D65D9666D
:103AD8005E64C3F85CB0FEF78FFF0246F0B1FEE704
:103AE800004402580014025800000258000C025802
:103AF8000018025800100258FC030020085402580D
:103B08005003002040000240C803002040410052FA
:103B1800D4010020045C0140007701003E4B4FF4C3
:103B28000051DFF810815A609A649A605A61DA602D
:103B38009A62DA621A6383F834209A639A651A667D
:103B48005A669A6608221961DA66FF2233491864B0
:103B580018465E64DD64C3F818A0D961DF631F6589
:103B68005D65C3F85CB01A67C3F80080FEF744FFD0
:103B780000B1FEE72A4B4FF080424FF4800EDFF889
:103B8800B8C04FF080514FF080774FF08065986053
:103B98001861186258629862986318645864986447
:103BA800D86418655865986518465A63C3F80C9028
:103BB800C3F82C90DE635F619D61D96183E8005092
:103BC800FFF7C6FA024600B1FEE7164B4FF6FF753F
:103BD800154918465A609A601A625A629A621960C0
:103BE8005D61FDF717F9024600B1FEE70F4B10497A
:103BF80018465A609A605D611A625A629A62DA627D
:103C08001960FDF707F900B1FEE72046FFF71CFD34
:103C1800FFF762FDFEE700BF4000002000770100CB
:103C28004C010020A002002000300058680200204B
:103C380000280058245C014000500140FEE700BF06
:103C48001F4B0320D3F8F42042F0020200B5C3F85A
:103C5800F42083B0D3F8F43003F002030193019BFE
:103C6800FCF792FB00226FF00B001146FCF7A0FB5B
:103C780000226FF00A001146FCF79AFB00226FF051
:103C880009001146FCF794FB00226FF0040011466E
:103C9800FCF78EFB00226FF003001146FCF788FB4F
:103CA80000226FF001001146FCF782FB00224FF062
:103CB800FF301146FCF77CFB03B05DF804FB00BF46
:103CC800004402580368174A934210B582B004D0E2
:103CD800154A934210D002B010BD144BD3F8F4200B
:103CE80042F48062C3F8F420D3F8F43003F480631C
:103CF8000093009B02B010BD0C4B00228D20D3F81E
:103D0800F440114644F48054C3F8F440D3F8F43036
:103D180003F480530193019BFCF74AFB8D20FCF7C9
:103D280081FBD8E7002800580030005800440258AA
:103D38000268154B9A4200D07047144B1448D3F8C8
:103D4800F02042F48012F0B5C3F8F02087B0D3F821
:103D5800F03000244FF46077022603F48013052521
:103D680001A901970093009B02960394049405957A
:103D7800FCF71CFF224621465520FCF719FB55206D
:103D8800FCF750FB07B0F0BD00500140004402585A
:103D980000140258364BF0B51C6887B00CB107B058
:103DA800F0BD344A01214FF63F000227196003266F
:103DB800D2F8D4300C2501A943F48053C2F8D4308A
:103DC800D2F8D430019003F480532B480394009325
:103DD800009B029704960595FCF7E8FE0423274804
:103DE80002970DEB03010193049605950394FCF7E4
:103DF800DDFE802301A922480193029704960595C8
:103E08000394FCF7D3FE102301A91E4801930297DF
:103E1800049605950394FCF7C9FE48F2371301A9E7
:103E2800194801930297049605950394FCF7BEFE82
:103E38004FF4F06301A9154801930297049605957C
:103E48000394FCF7B3FE4CF2030301A91048019355
:103E58000297049605950394FCF7A8FE224621468E
:103E68003020FCF7A5FA3020FCF7DCFA07B0F0BDEB
:103E7800380000200044025800140258001C025860
:103E88000000025800080258001802580010025892
:103E9800000C0258734A036893422DE9F04705461F
:103EA80088B000F08180704A934202D008B0BDE823
:103EB800F0876E4C2268002A60D0002601324FF04D
:103EC800020803274FF00A0A03A969484FF48059EA
:103ED8002260CDF80C80CDF81080CDF81CA0059696
:103EE8000697FCF763FE4FF4C05303A96148CDF869
:103EF8001080CDF81CA04FF05A0A03930596069738
:103F0800FCF754FE082303A959485B4CCDF81080F0
:103F18004FF04008079305960697CDF80C90FCF7EC
:103F280045FE56484FF4806C4FF4804E4FF4807134
:103F38004FF40032042320602046C4F81490E66051
:103F4800A762E6622663C4F804A0C4F80880C4F82F
:103F580010C0C4F818E0E16122626362FCF7DCFA81
:103F680030B9C5F88040A563EC6708B0BDE8F087B4
:103F78004FF401714248FFF761FEF2E7414B1146E9
:103F88005B20D3F8F06046F40006C3F8F060D3F87D
:103F9800F03003F400030293029BFCF709FA5B205C
:103FA800FCF740FA226888E7304C2268002A3CD0A7
:103FB800013200264FF4605C4FF0020E03270A23FB
:103FC800226003A9304C3148CDF80CC0CDF810E080
:103FD800069707930596FCF7E9FD5920DFF8B080AE
:103FE8004FF4806C4FF4805EA7624FF480714FF4F9
:103FF80080474FF40032042360602046A660E660E4
:10400800E6622663C4F80080C4F810C0C4F814E05F
:10401800A761E16122626362FCF77EFAD8B92B6876
:10402800C5F88040A563EC673DE7164B11465B2059
:10403800D3F8F06046F40006C3F8F060D3F8F03027
:1040480003F400030193019BFCF7B2F95B20FCF732
:10405800E9F92268ACE740F2C1110948FFF7EEFD23
:10406800DDE700BF045C0140245C01403C00002007
:104078000000025800100258D40000202800024016
:104088004442000800440258D8020020000C02589C
:1040980010000240704700BFFEE700BFFEE700BF08
:1040A800FEE700BFFEE700BF704700BF704700BFD4
:1040B800704700BF08B5FCF743F9BDE80840FCF7B6
:1040C800E5B900BF0148FCF719BC00BFD8020020C1
:1040D8000148FCF713BC00BFD40000200148FEF7DC
:1040E8009DBF00BFC80300200148FFF7EBB800BF21
:1040F8004C01002008B50448FEF792FE0348BDE8CD
:104108000840FEF78DBE00BFD4010020400000200B
:104118000148FCF7F5BE00BFA002002014490022A8
:10412800144B1548F0B4D1F8884001274FF00065CA
:10413800124E44F47004C1F888401C683C431C606B
:104148001A611C68204018609A61DA611A629A62E2
:10415800DA621A635A639A63DA631A645A641868EB
:1041680020F4802018601A6637608D60F0BC7047B4
:1041780000ED00E0004402587FEDF6EA08810051A6
:10418800DFF834D0002103E00C4B5B584350043176
:104198000B480C4B42189A42F6D30B4A02E0002314
:1041A80042F8043B094B9A42F9D3FFF7B7FF00F0F6
:1041B80011F8FFF737FB704700000220784200082B
:1041C80000000020180000201800002074040020BF
:1041D800FEE7000070B50D4E0D4CA41BA410002581
:1041E800A54209D10B4E0C4C00F018F8A41BA410E2
:1041F8000025A54205D170BD56F8253098470135F0
:10420800EEE756F8253098470135F2E77042000886
:10421800704200087042000874420008F8B500BFF8
:10422800F8BC08BC9E467047F8B500BFF8BC08BC8F
:044238009E467047E7
:10423C0000061016000610162E2E5C5372635C736B
:10424C00746D3332683778785F68616C5F6D73704A
:10425C002E630000000000000102030401020304AD
:04426C000607080930
:04427000BD02000883
:0442740099020008A3
:104278000100000010000000000000C0000000C0A5
:08428800000000C00090D0030B
:040000050800418925
:00000001FF
